S00B00006361722E73726563E3
S11300000C9434000C943E000C943E000C943E007E
S11300100C943E000C943E000C943E000C943E0064
S11300200C943E000C943E000C943E000C943E0054
S11300300C943E000C943E000C943E000C943E0044
S11300400C943E000C943E000C943E000C943E0034
S11300500C943E000C943E000C943E000C943E0024
S11300600C943E000C943E0011241FBECFEFD8E048
S1130070DEBFCDBF0E94B6000C9476020C94000043
S1130080E0EBF0E0808183628083E1EBF0E080814B
S11300908960808380E28093B30084E68093B40017
S11300A0089585B98BB18F7E8BB98BB18F7B8BB95A
S11300B08BB180688BB987EA91E60197F1F700C0AC
S11300C000008BB18F778BB9089588E30E945100AB
S11300D089EF90E00197F1F700C0000081E00E94F1
S11300E0510089EF90E00197F1F700C0000082E031
S11300F00E94510089EF90E00197F1F700C00000E1
S113010086E00E94510089EF90E00197F1F700C06A
S1130110000080E80E94510089EF90E00197F1F718
S113012000C00000089585B98BB180618BB98BB193
S11301308F7B8BB98BB180688BB983EF91E001978A
S1130140F1F700C000008BB18F778BB90895882335
S113015021F0813021F080E003C080E801C080EC10
S1130160603108F4860F0E9451000895CF93DF9305
S113017000D000D0CDB7DEB787B1836087B98FEFE9
S113018084B988EF8AB90E9440000E94650083EC1C
S113019099E00197F1F700C000008CE00E94510043
S11301A083EC99E00197F1F700C0000081E00E9420
S11301B0510019821A821B821C8280E289838BB9C6
S11301C086E791E00197F1F700C000001BB89FE7B4
S11301D02AE186E0915020408040E1F700C0000011
S11301E081E00E94510084E680937C0083E8809340
S11301F07A0080E090E009C0E1E0F0E0EC0FFD1F40
S1130200E80FF91F20E22083019684309105A4F3BE
S113021067E080E00E94A700EAE7F0E08081806464
S1130220808380917A0086FDFCCFD090790083E6AC
S113023080937C00EAE7F0E0808180648083809191
S11302407A0086FDFCCFF090790085E680937C00EF
S1130250EAE7F0E080818064808380917A0086FD03
S1130260FCCFE9E7F0E0E080808148E050E0BE01A7
S11302706F5F7F4F90E00E94360200E010E013C0F1
S1130280E1E0F0E0EC0FFD1FE00FF11F808190ED45
S1130290980F9A3020F080E20E94930002C00E94DE
S11302A093000F5F1F4F0430110554F383EC99E062
S11302B00197F1F700C0000098EC9E1558F49F15C3
S11302C048F49D1538F488B18E7F88B988B18D7F44
S11302D088B9A0C027EC2E15B8F12F15A8F12D155B
S11302E098F18F2D90E08E0D911D8D0D911D63E081
S11302F070E00E940E0227E731E0A901461B570B6C
S11303006FEF649FC001659F900D1124B9010E9495
S11303100E026093B40088B1816088B988B18D7F82
S113032088B980E28BB986E791E00197F1F700C0C4
S113033000001BB89FE72AE186E0915020408040EE
S1130340E1F700C0000066C097EC9E15B0F128EC00
S11303502F1598F59D1588F18D2D90E08E0D911D2A
S113036063E070E00E940E0227E731E0A901461B1A
S1130370570B6FEF649FC001659F900D1124B90165
S11303800E940E026093B40088B1826088B988B17B
S11303908E7F88B980E28BB986E791E00197F1F707
S11303A000C000001BB89FE72AE186E0915020407E
S11303B08040E1F700C000002DC097EC9F1598F035
S11303C028EC2D1580F42E1570F480E28BB981E2AF
S11303D08A95F1F700001BB88FE493EC0197F1F7CD
S11303E000C0000017C098EC9F15A0F427EC2D1551
S11303F088F09E1578F480E28BB98FE493EC019732
S1130400F1F700C000001BB88FE493EC0197F1F7FB
S113041000C0000081E00E945100E2CE97FB072E4D
S113042016F4009407D077FD09D00E94220207FC3D
S113043005D03EF4909581959F4F089570956195F0
S11304407F4F0895AA1BBB1B51E107C0AA1FBB1F06
S1130450A617B70710F0A61BB70B881F991F5A954C
S1130460A9F780959095BC01CD01089545325105B9
S113047020F4423010F00C944102FB011082CB01B5
S11304800895BB274A3031F4992322F4BDE29095B4
S113049081959F4F0C944D02BB27FB015527AA273A
S11304A0880F991FAA1FA41710F0A41B83955051FD
S11304B0B9F7A05DAA3308F0A95DA193009779F775
S11304C0B111B1931192CB010C946602DC01FC01D1
S11304D0672F71917723E1F7329704C07C916D9374
S11304E070836291AE17BF07C8F30895F894FFCFE5
S9030000FC
