:100000000C9434000C943E000C943E000C943E0082
:100010000C943E000C943E000C943E000C943E0068
:100020000C943E000C943E000C943E000C943E0058
:100030000C943E000C943E000C943E000C943E0048
:100040000C943E000C943E000C943E000C943E0038
:100050000C943E000C943E000C943E000C943E0028
:100060000C943E000C943E0011241FBECFEFD8E04C
:10007000DEBFCDBF0E94BA000C9434020C94000085
:10008000E0EBF0E0808183628083E1EBF0E080814F
:10009000896080838FEF8093B400089585B98BB118
:1000A0008F7E8BB98BB18F7B8BB98BB180688BB90D
:1000B00087EA91E60197F1F700C000008BB18F77D6
:1000C0008BB9089588E30E944E0089EF90E0019774
:1000D000F1F700C0000081E00E944E0089EF90E03F
:1000E0000197F1F700C0000082E00E944E0089EF06
:1000F00090E00197F1F700C0000086E00E944E00FA
:1001000089EF90E00197F1F700C0000080E80E94BD
:100110004E0089EF90E00197F1F700C000000895CC
:1001200085B98BB180618BB98BB18F7B8BB98BB16A
:1001300080688BB983EF91E00197F1F700C0000070
:100140008BB18F778BB90895882321F0813021F00E
:1001500080E003C080E801C080EC603108F4860FC5
:100160000E944E00089584B5816284BD85B5836088
:1001700085BD0895CF93DF9300D000D0CDB7DEB713
:1001800087B1836087B98FEF84B988EF8AB90E94FD
:1001900040000E94620083EC99E00197F1F700C0F3
:1001A00000008CE00E944E0083EC99E00197F1F78B
:1001B00000C0000081E00E944E0019821A821B825A
:1001C0001C8280E289830E94B3008CE088BD81E0BC
:1001D0000E944E0084E680937C0083E880937A003E
:1001E00080E090E009C0E1E0F0E0EC0FFD1FE80FD7
:1001F000F91F20E22083019684309105A4F367E083
:1002000080E00E94A400EAE7F0E0808180648083BF
:1002100080917A0086FDFCCFB090790083E68093D0
:100220007C00EAE7F0E080818064808380917A003E
:1002300086FDFCCFF090790085E680937C00EAE7AC
:10024000F0E080818064808380917A0086FDFCCF1D
:10025000E0907900CF2CD12C48E050E0BE016F5FD8
:100260007F4FC6010E94F40100E010E013C0E1E0FE
:10027000F0E0EC0FFD1FE00FF11F808190ED980F73
:100280009A3020F080E20E94900002C00E9490000C
:100290000F5F1F4F0430110554F383EC99E0019771
:1002A000F1F700C0000098EC9E1558F49F1548F433
:1002B0009B1538F488B18E7F88B988B18D7F88B955
:1002C00067C087EC8E1530F18F1520F18B1510F17A
:1002D000C6018E0D911D8B0D911D63E070E00E9493
:1002E000CC0127E731E0A901461B570B6FEF649F54
:1002F000C001659F900D1124B9010E94CC0160934B
:10030000B40088B1816088B988B18D7F88B98CE0EC
:1003100088BD3EC097EC9E1530F188EC8F1518F51E
:100320009B1508F18B2D90E08E0D911D63E070E020
:100330000E94CC0127E731E0A901461B570B6FEF64
:10034000649FC001659F900D1124B9010E94CC01EA
:100350006093B40088B1826088B988B18E7F88B913
:100360008CE088BD15C097EC9F1540F088EC8B158C
:1003700028F48E1518F481E088BD0AC098EC9F150A
:1003800038F487EC8B1520F09E1510F48FE088BDB3
:1003900081E00E944E001BCF97FB072E16F40094BD
:1003A00007D077FD09D00E94E00107FC05D03EF49C
:1003B000909581959F4F0895709561957F4F089511
:1003C000AA1BBB1B51E107C0AA1FBB1FA617B7077B
:1003D00010F0A61BB70B881F991F5A95A9F7809597
:1003E0009095BC01CD0108954532510520F442306D
:1003F00010F00C94FF01FB011082CB010895BB2784
:100400004A3031F4992322F4BDE2909581959F4FB3
:100410000C940B02BB27FB015527AA27880F991FB5
:10042000AA1FA41710F0A41B83955051B9F7A05D23
:10043000AA3308F0A95DA193009779F7B111B193A0
:100440001192CB010C942402DC01FC01672F719105
:100450007723E1F7329704C07C916D9370836291AA
:0C046000AE17BF07C8F30895F894FFCF53
:00000001FF
