:100000000C9434000C943E000C943E000C943E0082
:100010000C943E000C943E000C943E000C943E0068
:100020000C943E000C943E000C943E000C943E0058
:100030000C943E000C943E000C943E000C943E0048
:100040000C943E000C943E000C943E000C943E0038
:100050000C943E000C943E000C943E000C943E0028
:100060000C943E000C943E0011241FBECFEFD8E04C
:10007000DEBFCDBF0E94B6000C944D020C94000070
:10008000E0EBF0E0808183628083E1EBF0E080814F
:100090008960808380E28093B30084E68093B4001B
:1000A000089585B98BB18F7E8BB98BB18F7B8BB95E
:1000B0008BB180688BB987EA91E60197F1F700C0B0
:1000C00000008BB18F778BB9089588E30E945100AF
:1000D00089EF90E00197F1F700C0000081E00E94F5
:1000E000510089EF90E00197F1F700C0000082E035
:1000F0000E94510089EF90E00197F1F700C00000E5
:1001000086E00E94510089EF90E00197F1F700C06E
:10011000000080E80E94510089EF90E00197F1F71C
:1001200000C00000089585B98BB180618BB98BB197
:100130008F7B8BB98BB180688BB983EF91E001978E
:10014000F1F700C000008BB18F778BB90895882339
:1001500021F0813021F080E003C080E801C080EC14
:10016000603108F4860F0E9451000895CF93DF9309
:1001700000D000D0CDB7DEB787B1836087B98FEFED
:1001800084B988EF8AB90E9440000E94650083EC20
:1001900099E00197F1F700C000008CE00E94510047
:1001A00083EC99E00197F1F700C0000081E00E9424
:1001B000510019821A821B821C8280E2898381E0AD
:1001C0000E94510084E680937C0083E880937A004B
:1001D00080E090E009C0E1E0F0E0EC0FFD1FE80FE7
:1001E000F91F20E22083019684309105A4F367E093
:1001F00080E00E94A700EAE7F0E0808180648083CD
:1002000080917A0086FDFCCFD090790083E68093C0
:100210007C00EAE7F0E080818064808380917A004E
:1002200086FDFCCFF090790085E680937C00EAE7BC
:10023000F0E080818064808380917A0086FDFCCF2D
:10024000E9E7F0E0E080808148E050E0BE016F5FC8
:100250007F4F90E00E940D0200E010E013C0E1E04B
:10026000F0E0EC0FFD1FE00FF11F808190ED980F83
:100270009A3020F080E20E94930002C00E94930016
:100280000F5F1F4F0430110554F383EC99E0019781
:10029000F1F700C0000098EC9E15B8F49F15A8F483
:1002A0009D1598F480E28BB982E38A95F1F71BB82B
:1002B0008FE493EC0197F1F700C0000088B18E7FC6
:1002C00088B988B18D7F88B97CC097EC9E1528F1DC
:1002D0009F1518F19D1508F18F2D90E08E0D911D41
:1002E0008D0D911D63E070E00E94E50187E7861B9C
:1002F0008093B40088B1816088B988B18D7F88B956
:1003000080E28BB982E38A95F1F71BB88FE493EC16
:100310000197F1F700C0000054C097EC9E1520F142
:1003200088EC8F1508F59D15F8F08D2D90E08E0D59
:10033000911D63E070E00E94E50187E7861B8093D2
:10034000B40088B1826088B988B18E7F88B980E2B4
:100350008BB992E39A95F1F71BB88FE493EC019770
:10036000F1F700C000002DC097EC9F1598F088ECC5
:100370008D1580F48E1570F480E28BB991E29A9518
:10038000F1F700001BB88FE493EC0197F1F700C080
:10039000000017C098EC9F15A0F487EC8D1588F02D
:1003A0009E1578F480E28BB98FE493EC0197F1F716
:1003B00000C000001BB88FE493EC0197F1F700C078
:1003C000000081E00E945100FACE97FB072E16F440
:1003D000009407D077FD09D00E94F90107FC05D0F1
:1003E0003EF4909581959F4F0895709561957F4F4C
:1003F0000895AA1BBB1B51E107C0AA1FBB1FA6176C
:10040000B70710F0A61BB70B881F991F5A95A9F7BD
:1004100080959095BC01CD0108954532510520F499
:10042000423010F00C941802FB011082CB010895A9
:10043000BB274A3031F4992322F4BDE2909581958F
:100440009F4F0C942402BB27FB015527AA27880F36
:10045000991FAA1FA41710F0A41B83955051B9F738
:10046000A05DAA3308F0A95DA193009779F7B111B7
:10047000B1931192CB010C943D02DC01FC01672F7A
:1004800071917723E1F7329704C07C916D9370836B
:0E0490006291AE17BF07C8F30895F894FFCF2E
:00000001FF
