S00B00006361722E73726563E3
S11300000C9434000C943E000C943E000C943E007E
S11300100C943E000C943E000C943E000C943E0064
S11300200C943E000C943E000C943E000C943E0054
S11300300C943E000C943E000C943E000C943E0044
S11300400C943E000C943E000C943E000C943E0034
S11300500C943E000C943E000C943E000C943E0024
S11300600C943E000C943E0011241FBECFEFD8E048
S1130070DEBFCDBF0E94BA000C9441020C94000074
S1130080E0EBF0E0808183628083E1EBF0E080814B
S1130090896080838FEF8093B400089585B98BB114
S11300A08F7E8BB98BB18F7B8BB98BB180688BB909
S11300B087EA91E60197F1F700C000008BB18F77D2
S11300C08BB9089588E30E944E0089EF90E0019770
S11300D0F1F700C0000081E00E944E0089EF90E03B
S11300E00197F1F700C0000082E00E944E0089EF02
S11300F090E00197F1F700C0000086E00E944E00F6
S113010089EF90E00197F1F700C0000080E80E94B9
S11301104E0089EF90E00197F1F700C000000895C8
S113012085B98BB180618BB98BB18F7B8BB98BB166
S113013080688BB983EF91E00197F1F700C000006C
S11301408BB18F778BB90895882321F0813021F00A
S113015080E003C080E801C080EC603108F4860FC1
S11301600E944E00089584B5816284BD85B5836084
S113017085BD0895CF93DF9300D000D0CDB7DEB70F
S113018087B1836087B98FEF84B988EF8AB90E94F9
S113019040000E94620083EC99E00197F1F700C0EF
S11301A000008CE00E944E0083EC99E00197F1F787
S11301B000C0000081E00E944E0019821A821B8256
S11301C01C8280E289830E94B3008CE088BD81E0B8
S11301D00E944E0084E680937C0083E880937A003A
S11301E080E090E009C0E1E0F0E0EC0FFD1FE80FD3
S11301F0F91F20E22083019684309105A4F367E07F
S113020080E00E94A400EAE7F0E0808180648083BB
S113021080917A0086FDFCCFB090790083E68093CC
S11302207C00EAE7F0E080818064808380917A003A
S113023086FDFCCFF090790085E680937C00EAE7A8
S1130240F0E080818064808380917A0086FDFCCF19
S1130250E0907900CF2CD12C4AE050E0BE016F5FD2
S11302607F4FC6010E94010200E010E013C0E1E0EC
S1130270F0E0EC0FFD1FE00FF11F808190ED980F6F
S11302809A3020F080E20E94900002C00E94900008
S11302900F5F1F4F0430110554F383EC99E001976D
S11302A0F1F700C0000092E89E15B0F49F15A0F489
S11302B09B1590F488B18E7F88B988B18D7F88B9F9
S11302C02FEB84ED91E0215080409040E1F700C095
S11302D000008CE088BD69C021E82E1538F12F1587
S11302E028F12B1518F1C6018E0D911D8B0D911D52
S11302F063E070E00E94D9018FEF90E0861B970BBA
S1130300880F880F8093B30088B1816088B988B161
S11303108D7F88B98FEB94ED21E08150904020408F
S1130320E1F700C000008CE088BD3FC081E88E1575
S113033038F192E89F1520F58B1510F18B2D90E084
S11303408E0D911D63E070E00E94D9018FEF90E063
S1130350861B970B880F880F8093B30088B1826047
S113036088B988B18E7F88B92FEB84ED91E0215054
S113037080409040E1F700C000008CE088BD15C0CB
S113038021E82F1540F082E88B1528F48E1518F417
S113039081E088BD0AC092E89F1538F421E82B1546
S11303A020F09E1510F480E188BD81E00E944E008B
S11303B00ECF97FB072E16F4009407D077FD09D0D3
S11303C00E94ED0107FC05D03EF4909581959F4F66
S11303D00895709561957F4F0895AA1BBB1B51E149
S11303E007C0AA1FBB1FA617B70710F0A61BB70BA1
S11303F0881F991F5A95A9F780959095BC01CD0146
S113040008954532510520F4423010F00C940C024A
S1130410FB011082CB010895BB274A3031F49923A4
S113042022F4BDE2909581959F4F0C941802BB274E
S1130430FB015527AA27880F991FAA1FA41710F09C
S1130440A41B83955051B9F7A05DAA3308F0A95DA8
S1130450A193009779F7B111B1931192CB010C9448
S11304603102DC01FC01672F71917723E1F73297A8
S113047004C07C916D9370836291AE17BF07C8F37B
S10904800895F894FFCF7B
S9030000FC
